{
    "contractName": "Value",
    "abi": [
        {
            "inputs": [],
            "name": "_address",
            "outputs": [
                {
                    "internalType": "address",
                    "name": "",
                    "type": "address"
                }
            ],
            "stateMutability": "view",
            "type": "function"
        },
        {
            "inputs": [],
            "name": "_bool",
            "outputs": [
                {
                    "internalType": "bool",
                    "name": "",
                    "type": "bool"
                }
            ],
            "stateMutability": "view",
            "type": "function"
        },
        {
            "inputs": [],
            "name": "_byte",
            "outputs": [
                {
                    "internalType": "bytes4",
                    "name": "",
                    "type": "bytes4"
                }
            ],
            "stateMutability": "view",
            "type": "function"
        },
        {
            "inputs": [],
            "name": "_byte32",
            "outputs": [
                {
                    "internalType": "bytes32",
                    "name": "",
                    "type": "bytes32"
                }
            ],
            "stateMutability": "view",
            "type": "function"
        },
        {
            "inputs": [],
            "name": "a",
            "outputs": [
                {
                    "internalType": "int64",
                    "name": "",
                    "type": "int64"
                }
            ],
            "stateMutability": "view",
            "type": "function"
        },
        {
            "inputs": [],
            "name": "address1",
            "outputs": [
                {
                    "internalType": "address payable",
                    "name": "",
                    "type": "address"
                }
            ],
            "stateMutability": "view",
            "type": "function"
        },
        {
            "inputs": [],
            "name": "b",
            "outputs": [
                {
                    "internalType": "int32",
                    "name": "",
                    "type": "int32"
                }
            ],
            "stateMutability": "view",
            "type": "function"
        },
        {
            "inputs": [],
            "name": "bool1",
            "outputs": [
                {
                    "internalType": "bool",
                    "name": "",
                    "type": "bool"
                }
            ],
            "stateMutability": "view",
            "type": "function"
        },
        {
            "inputs": [],
            "name": "bool2",
            "outputs": [
                {
                    "internalType": "bool",
                    "name": "",
                    "type": "bool"
                }
            ],
            "stateMutability": "view",
            "type": "function"
        },
        {
            "inputs": [],
            "name": "bool3",
            "outputs": [
                {
                    "internalType": "bool",
                    "name": "",
                    "type": "bool"
                }
            ],
            "stateMutability": "view",
            "type": "function"
        },
        {
            "inputs": [],
            "name": "d",
            "outputs": [
                {
                    "internalType": "uint64",
                    "name": "",
                    "type": "uint64"
                }
            ],
            "stateMutability": "view",
            "type": "function"
        },
        {
            "inputs": [],
            "name": "f",
            "outputs": [
                {
                    "internalType": "uint256",
                    "name": "",
                    "type": "uint256"
                }
            ],
            "stateMutability": "view",
            "type": "function"
        }
    ],
    "bytecode": "60806040526000805461ffff191660011790819055610100900460ff16801561002a575060005460ff165b6000805464ffff010000600160681b0319166201000092151592909202600160281b600160681b0319169190911766271000000000001763ffffffff60681b1916607d606b1b179081905561009f906d0100000000000000000000000000810460030b9065010000000000900460070b61015f565b600080546001600160401b0392909216600160881b02600160881b600160c81b0319909216919091179055600180546001600160401b031916606417905560c8600255600380546001600160a01b03191673d8b934580fce35a11b58c6d73adee468a2833fa8179055600480547733320000ab8483f64d9c6d1ecf9b849ae677dd3315835cb26001600160c01b031990911617905567039323432343234360c41b6005556006805460ff1916905534801561015957600080fd5b506101a0565b600781810b9083900b0160016001603f1b03811360016001603f1b03198212171561019a57634e487b7160e01b600052601160045260246000fd5b92915050565b610252806101af6000396000f3fe608060405234801561001057600080fd5b50600436106100b45760003560e01c80634df7e3d0116100715780634df7e3d0146101695780638a054ac2146101905780639e6ba9c2146101bd578063aeb6f292146101ca578063e845ce8f146101f7578063ec630c701461020a57600080fd5b80630dbe671f146100b957806318bad217146100e757806326121ff0146101125780633a36399e146101295780633f3461021461013c5780633f918cbb14610145575b600080fd5b6000546100cf9065010000000000900460070b81565b60405160079190910b81526020015b60405180910390f35b6003546100fa906001600160a01b031681565b6040516001600160a01b0390911681526020016100de565b61011b60025481565b6040519081526020016100de565b6004546100fa906001600160a01b031681565b61011b60055481565b600054610159906301000000900460ff1681565b60405190151581526020016100de565b60005461017d90600160681b900460030b81565b60405160039190910b81526020016100de565b6001546101a49067ffffffffffffffff1681565b60405167ffffffffffffffff90911681526020016100de565b6000546101599060ff1681565b6004546101de90600160a01b900460e01b81565b6040516001600160e01b031990911681526020016100de565b6000546101599062010000900460ff1681565b60005461015990610100900460ff168156fea2646970667358221220e7510ffd8c48fe64ae4d61631dec87324cde89200af3c759f4fc3650e344212064736f6c63430008130033",
    "sourcePath": "c:/Users/l'w'j/Desktop/11/Day1_value.sol",
    "compiler": {
        "name": "solc",
        "version": "0.8.19+commit.7dd6d404"
    },
    "functionHashes": {
        "_address()": "18bad217",
        "_bool()": "9e6ba9c2",
        "_byte()": "aeb6f292",
        "_byte32()": "3f346102",
        "a()": "0dbe671f",
        "address1()": "3a36399e",
        "b()": "4df7e3d0",
        "bool1()": "ec630c70",
        "bool2()": "e845ce8f",
        "bool3()": "3f918cbb",
        "d()": "8a054ac2",
        "f()": "26121ff0"
    },
    "gasEstimates": {
        "creation": {
            "codeDepositCost": "118800",
            "executionCost": "216508",
            "totalCost": "335308"
        },
        "external": {
            "_address()": "2360",
            "_bool()": "2354",
            "_byte()": "2411",
            "_byte32()": "2384",
            "a()": "2321",
            "address1()": "2404",
            "b()": "2337",
            "bool1()": "2431",
            "bool2()": "2409",
            "bool3()": "2432",
            "d()": "2335",
            "f()": "2340"
        }
    }
}